{
  "contractName": "AirDrop",
  "abi": [
    {
      "inputs": [
        {
          "internalType": "contract Token",
          "name": "_token",
          "type": "address"
        },
        {
          "internalType": "bytes32",
          "name": "_airDropWhiteListMerkleRoot",
          "type": "bytes32"
        },
        {
          "internalType": "uint256",
          "name": "_maxRedeemAmount",
          "type": "uint256"
        }
      ],
      "stateMutability": "nonpayable",
      "type": "constructor"
    },
    {
      "anonymous": false,
      "inputs": [
        {
          "indexed": true,
          "internalType": "address",
          "name": "account",
          "type": "address"
        },
        {
          "indexed": false,
          "internalType": "uint256",
          "name": "amount",
          "type": "uint256"
        }
      ],
      "name": "Redeem",
      "type": "event"
    },
    {
      "inputs": [],
      "name": "airDropWhiteListMerkleRoot",
      "outputs": [
        {
          "internalType": "bytes32",
          "name": "",
          "type": "bytes32"
        }
      ],
      "stateMutability": "view",
      "type": "function",
      "constant": true
    },
    {
      "inputs": [
        {
          "internalType": "bytes32",
          "name": "_airDropWhiteListMerkleRoot",
          "type": "bytes32"
        }
      ],
      "name": "updateMerkleRoot",
      "outputs": [],
      "stateMutability": "nonpayable",
      "type": "function"
    },
    {
      "inputs": [
        {
          "internalType": "uint256",
          "name": "_path",
          "type": "uint256"
        },
        {
          "internalType": "bytes32[]",
          "name": "_witnesses",
          "type": "bytes32[]"
        },
        {
          "internalType": "uint256",
          "name": "_amount",
          "type": "uint256"
        }
      ],
      "name": "redeem",
      "outputs": [],
      "stateMutability": "nonpayable",
      "type": "function"
    }
  ],
  "bytecode": "0x608060405234801562000010575f80fd5b5060405162000e7f38038062000e7f8339818101604052810190620000369190620001b4565b335f806101000a81548173ffffffffffffffffffffffffffffffffffffffff021916908373ffffffffffffffffffffffffffffffffffffffff1602179055508260015f6101000a81548173ffffffffffffffffffffffffffffffffffffffff021916908373ffffffffffffffffffffffffffffffffffffffff16021790555081600281905550806004819055505050506200020d565b5f80fd5b5f73ffffffffffffffffffffffffffffffffffffffff82169050919050565b5f620000fb82620000d0565b9050919050565b5f6200010e82620000ef565b9050919050565b620001208162000102565b81146200012b575f80fd5b50565b5f815190506200013e8162000115565b92915050565b5f819050919050565b620001588162000144565b811462000163575f80fd5b50565b5f8151905062000176816200014d565b92915050565b5f819050919050565b62000190816200017c565b81146200019b575f80fd5b50565b5f81519050620001ae8162000185565b92915050565b5f805f60608486031215620001ce57620001cd620000cc565b5b5f620001dd868287016200012e565b9350506020620001f08682870162000166565b925050604062000203868287016200019e565b9150509250925092565b610c64806200021b5f395ff3fe608060405234801561000f575f80fd5b506004361061003f575f3560e01c806336a1e36b146100435780634783f0ef1461005f578063b29c196c1461007b575b5f80fd5b61005d60048036038101906100589190610666565b610099565b005b610079600480360381019061007491906106d2565b610402565b005b610083610499565b604051610090919061070c565b60405180910390f35b6004548111156100de576040517f08c379a00000000000000000000000000000000000000000000000000000000081526004016100d5906107a5565b60405180910390fd5b60035f3373ffffffffffffffffffffffffffffffffffffffff1673ffffffffffffffffffffffffffffffffffffffff1681526020019081526020015f205f9054906101000a900460ff1615610168576040517f08c379a000000000000000000000000000000000000000000000000000000000815260040161015f9061080d565b60405180910390fd5b5f8390505f8390505f80336040516020016101849291906108e0565b6040516020818303038152906040528051906020012090505f5b82518161ffff16101561027557600180851603610206576001838261ffff16815181106101ce576101cd61090b565b5b6020026020010151836040516020016101e993929190610958565b604051602081830303815290604052805190602001209150610253565b600182848361ffff16815181106102205761021f61090b565b5b602002602001015160405160200161023a93929190610958565b6040516020818303038152906040528051906020012091505b60028461026091906109ee565b9350808061026d90610a2b565b91505061019e565b5060025481146102ba576040517f08c379a00000000000000000000000000000000000000000000000000000000081526004016102b190610ac4565b60405180910390fd5b600160035f3373ffffffffffffffffffffffffffffffffffffffff1673ffffffffffffffffffffffffffffffffffffffff1681526020019081526020015f205f6101000a81548160ff02191690831515021790555060015f9054906101000a900473ffffffffffffffffffffffffffffffffffffffff1673ffffffffffffffffffffffffffffffffffffffff1663a9059cbb33866040518363ffffffff1660e01b815260040161036b929190610b00565b6020604051808303815f875af1158015610387573d5f803e3d5ffd5b505050506040513d601f19601f820116820180604052508101906103ab9190610b5c565b503373ffffffffffffffffffffffffffffffffffffffff167f222838db2794d11532d940e8dec38ae307ed0b63cd97c233322e221f998767a6856040516103f29190610b87565b60405180910390a2505050505050565b5f8054906101000a900473ffffffffffffffffffffffffffffffffffffffff1673ffffffffffffffffffffffffffffffffffffffff163373ffffffffffffffffffffffffffffffffffffffff161461048f576040517f08c379a000000000000000000000000000000000000000000000000000000000815260040161048690610c10565b60405180910390fd5b8060028190555050565b60025481565b5f604051905090565b5f80fd5b5f80fd5b5f819050919050565b6104c2816104b0565b81146104cc575f80fd5b50565b5f813590506104dd816104b9565b92915050565b5f80fd5b5f601f19601f8301169050919050565b7f4e487b71000000000000000000000000000000000000000000000000000000005f52604160045260245ffd5b61052d826104e7565b810181811067ffffffffffffffff8211171561054c5761054b6104f7565b5b80604052505050565b5f61055e61049f565b905061056a8282610524565b919050565b5f67ffffffffffffffff821115610589576105886104f7565b5b602082029050602081019050919050565b5f80fd5b5f819050919050565b6105b08161059e565b81146105ba575f80fd5b50565b5f813590506105cb816105a7565b92915050565b5f6105e36105de8461056f565b610555565b905080838252602082019050602084028301858111156106065761060561059a565b5b835b8181101561062f578061061b88826105bd565b845260208401935050602081019050610608565b5050509392505050565b5f82601f83011261064d5761064c6104e3565b5b813561065d8482602086016105d1565b91505092915050565b5f805f6060848603121561067d5761067c6104a8565b5b5f61068a868287016104cf565b935050602084013567ffffffffffffffff8111156106ab576106aa6104ac565b5b6106b786828701610639565b92505060406106c8868287016104cf565b9150509250925092565b5f602082840312156106e7576106e66104a8565b5b5f6106f4848285016105bd565b91505092915050565b6107068161059e565b82525050565b5f60208201905061071f5f8301846106fd565b92915050565b5f82825260208201905092915050565b7f41697244726f703a20616d6f756e74206d757374206265206c657373207468615f8201527f6e206d61782072656465656d20616d6f756e742e000000000000000000000000602082015250565b5f61078f603483610725565b915061079a82610735565b604082019050919050565b5f6020820190508181035f8301526107bc81610783565b9050919050565b7f41697244726f703a20616c72656164792072656465656d65642e0000000000005f82015250565b5f6107f7601a83610725565b9150610802826107c3565b602082019050919050565b5f6020820190508181035f830152610824816107eb565b9050919050565b5f60ff82169050919050565b5f8160f81b9050919050565b5f61084d82610837565b9050919050565b6108656108608261082b565b610843565b82525050565b5f73ffffffffffffffffffffffffffffffffffffffff82169050919050565b5f6108948261086b565b9050919050565b5f8160601b9050919050565b5f6108b18261089b565b9050919050565b5f6108c2826108a7565b9050919050565b6108da6108d58261088a565b6108b8565b82525050565b5f6108eb8285610854565b6001820191506108fb82846108c9565b6014820191508190509392505050565b7f4e487b71000000000000000000000000000000000000000000000000000000005f52603260045260245ffd5b5f819050919050565b61095261094d8261059e565b610938565b82525050565b5f6109638286610854565b6001820191506109738285610941565b6020820191506109838284610941565b602082019150819050949350505050565b7f4e487b71000000000000000000000000000000000000000000000000000000005f52601260045260245ffd5b7f4e487b71000000000000000000000000000000000000000000000000000000005f52601160045260245ffd5b5f6109f8826104b0565b9150610a03836104b0565b925082610a1357610a12610994565b5b828204905092915050565b5f61ffff82169050919050565b5f610a3582610a1e565b915061ffff8203610a4957610a486109c1565b5b600182019050919050565b7f41697244726f703a2061646472657373206e6f7420696e2074686520776869745f8201527f656c697374206f722077726f6e672070726f6f662070726f76696465642e0000602082015250565b5f610aae603e83610725565b9150610ab982610a54565b604082019050919050565b5f6020820190508181035f830152610adb81610aa2565b9050919050565b610aeb8161088a565b82525050565b610afa816104b0565b82525050565b5f604082019050610b135f830185610ae2565b610b206020830184610af1565b9392505050565b5f8115159050919050565b610b3b81610b27565b8114610b45575f80fd5b50565b5f81519050610b5681610b32565b92915050565b5f60208284031215610b7157610b706104a8565b5b5f610b7e84828501610b48565b91505092915050565b5f602082019050610b9a5f830184610af1565b92915050565b7f41697244726f703a206f6e6c7920696e697469616c4f776e65722063616e20705f8201527f6572666f726d2074686973207472616e73616374696f6e2e0000000000000000602082015250565b5f610bfa603883610725565b9150610c0582610ba0565b604082019050919050565b5f6020820190508181035f830152610c2781610bee565b905091905056fea26469706673582212201df0bdff81e58471ceee72acb81c5caf7e28fd67172645b4e99dd37960e1bdf964736f6c63430008180033",
  "immutableReferences": {},
  "source": "// SPDX-License-Identifier: MIT\n\npragma solidity ^0.8.0;\n\nimport \"./Token.sol\";\n\n\ncontract AirDrop {\n    address private initialOwner;\n    Token private token;\n    bytes32 public airDropWhiteListMerkleRoot;\n    mapping(address => bool) private redeemed;\n    uint256 maxRedeemAmount;\n\n    event Redeem(address indexed account, uint256 amount);\n\n   \n    constructor(\n        Token _token,\n        bytes32 _airDropWhiteListMerkleRoot,\n        uint256 _maxRedeemAmount\n    ) {\n        initialOwner = msg.sender;\n        token = _token;\n        airDropWhiteListMerkleRoot = _airDropWhiteListMerkleRoot;\n        maxRedeemAmount = _maxRedeemAmount;\n    }\n\n    modifier onlyOwner() {\n        require(\n            msg.sender == initialOwner,\n            \"AirDrop: only initialOwner can perform this transaction.\"\n        );\n        _;\n    }\n\n    function updateMerkleRoot(\n        bytes32 _airDropWhiteListMerkleRoot\n    ) public onlyOwner {\n        airDropWhiteListMerkleRoot = _airDropWhiteListMerkleRoot;\n    }\n\n    /// @notice Addresses can redeem their tokens.\n    /// @param _path Proof path.\n    /// @param _witnesses List of proof witnesses.\n    /// @param _amount Amount of tokens wanted.\n    function redeem(\n        uint256 _path,\n        bytes32[] memory _witnesses,\n        uint256 _amount\n    ) public {\n        require(\n            _amount <= maxRedeemAmount,\n            \"AirDrop: amount must be less than max redeem amount.\"\n        );\n        require(!redeemed[msg.sender], \"AirDrop: already redeemed.\");\n\n        // Avoid no-assign-params\n        uint256 path = _path;\n        bytes32[] memory witnesses = _witnesses;\n\n        bytes32 node = keccak256(abi.encodePacked(uint8(0x00), msg.sender));\n        for (uint16 i = 0; i < witnesses.length; i++) {\n            if ((path & 0x01) == 1) {\n                node = keccak256(\n                    abi.encodePacked(uint8(0x01), witnesses[i], node)\n                );\n            } else {\n                node = keccak256(\n                    abi.encodePacked(uint8(0x01), node, witnesses[i])\n                );\n            }\n            path /= 2;\n        }\n\n        require(\n            node == airDropWhiteListMerkleRoot,\n            \"AirDrop: address not in the whitelist or wrong proof provided.\"\n        );\n\n        redeemed[msg.sender] = true;\n\n        token.transfer(msg.sender, _amount);\n\n        emit Redeem(msg.sender, _amount);\n    }\n\n    /// @notice It cancels the Air Drop availability.\n    /// @dev Only owner can perform this transaction. It selfdestructs the contract.\n    // function cancelAirDrop() public onlyOwner {\n    //     uint256 contractBalance = token.balanceOf(address(this));\n    //     token.transfer(owner, contractBalance);\n    //     selfdestruct(address(0));\n    // }\n}\n",
  "sourcePath": "C:\\Users\\BAPS\\Desktop\\MerkleAirDrop-master\\contracts\\AirDrop.sol",
  "compiler": {
    "name": "solc",
    "version": "0.8.24+commit.e11b9ed9.Emscripten.clang"
  },
  "schemaVersion": "3.4.16",
  "updatedAt": "2024-03-13T07:12:39.059Z",
  "networkType": "ethereum",
  "devdoc": {
    "kind": "dev",
    "methods": {
      "redeem(uint256,bytes32[],uint256)": {
        "params": {
          "_amount": "Amount of tokens wanted.",
          "_path": "Proof path.",
          "_witnesses": "List of proof witnesses."
        }
      }
    },
    "version": 1
  },
  "userdoc": {
    "kind": "user",
    "methods": {
      "redeem(uint256,bytes32[],uint256)": {
        "notice": "Addresses can redeem their tokens."
      }
    },
    "version": 1
  }
}