{
  "contractName": "Migrations",
  "abi": [
    {
      "inputs": [],
      "stateMutability": "nonpayable",
      "type": "constructor"
    },
    {
      "inputs": [],
      "name": "initialOwner",
      "outputs": [
        {
          "internalType": "address",
          "name": "",
          "type": "address"
        }
      ],
      "stateMutability": "view",
      "type": "function",
      "constant": true
    },
    {
      "inputs": [],
      "name": "last_completed_migration",
      "outputs": [
        {
          "internalType": "uint256",
          "name": "",
          "type": "uint256"
        }
      ],
      "stateMutability": "view",
      "type": "function",
      "constant": true
    },
    {
      "inputs": [
        {
          "internalType": "uint256",
          "name": "completed",
          "type": "uint256"
        }
      ],
      "name": "setCompleted",
      "outputs": [],
      "stateMutability": "nonpayable",
      "type": "function"
    }
  ],
  "bytecode": "0x608060405234801561000f575f80fd5b50335f806101000a81548173ffffffffffffffffffffffffffffffffffffffff021916908373ffffffffffffffffffffffffffffffffffffffff1602179055506102398061005c5f395ff3fe608060405234801561000f575f80fd5b506004361061003f575f3560e01c806329ba7bb214610043578063445df0ac14610061578063fdacd5761461007f575b5f80fd5b61004b61009b565b6040516100589190610160565b60405180910390f35b6100696100be565b6040516100769190610191565b60405180910390f35b610099600480360381019061009491906101d8565b6100c4565b005b5f8054906101000a900473ffffffffffffffffffffffffffffffffffffffff1681565b60015481565b5f8054906101000a900473ffffffffffffffffffffffffffffffffffffffff1673ffffffffffffffffffffffffffffffffffffffff163373ffffffffffffffffffffffffffffffffffffffff160361011e57806001819055505b50565b5f73ffffffffffffffffffffffffffffffffffffffff82169050919050565b5f61014a82610121565b9050919050565b61015a81610140565b82525050565b5f6020820190506101735f830184610151565b92915050565b5f819050919050565b61018b81610179565b82525050565b5f6020820190506101a45f830184610182565b92915050565b5f80fd5b6101b781610179565b81146101c1575f80fd5b50565b5f813590506101d2816101ae565b92915050565b5f602082840312156101ed576101ec6101aa565b5b5f6101fa848285016101c4565b9150509291505056fea2646970667358221220ceccfb2cd347a4cd48f5816309540423e2d2903397ae8b72293ae30e7b7ed30e64736f6c63430008180033",
  "immutableReferences": {},
  "source": "// SPDX-License-Identifier: MIT\npragma solidity ^0.8.0; \n\ncontract Migrations {\n    address public initialOwner;\n    uint256 public last_completed_migration;\n\n    constructor(){\n        initialOwner = msg.sender;\n    }\n\n    modifier restricted() {\n        if (msg.sender == initialOwner) _;\n    }\n\n    function setCompleted(uint256 completed) public restricted {\n        last_completed_migration = completed;\n    }\n}\n",
  "sourcePath": "C:\\Users\\BAPS\\Desktop\\MerkleAirDrop-master\\contracts\\Migrations.sol",
  "compiler": {
    "name": "solc",
    "version": "0.8.24+commit.e11b9ed9.Emscripten.clang"
  },
  "schemaVersion": "3.4.16",
  "updatedAt": "2024-03-13T07:12:39.062Z",
  "networkType": "ethereum",
  "devdoc": {
    "kind": "dev",
    "methods": {},
    "version": 1
  },
  "userdoc": {
    "kind": "user",
    "methods": {},
    "version": 1
  }
}